:020000040800F2
:100000000050002041080008BD070008C307000891
:10001000C9070008CF070008D50700080000000046
:10002000000000000000000000000000DB070008E6
:10003000E707000800000000F3070008FF070008BA
:10004000890800088908000889080008890800084C
:10005000890800088908000889080008890800083C
:10006000890800088908000889080008890800082C
:10007000890800088908000889080008890800081C
:10008000890800088908000889080008890800080C
:1000900089080008890800088908000889080008FC
:1000A000890800080D080008890800088908000868
:1000B00089080008890800088908000889080008DC
:1000C00089080008890800088908000889080008CC
:1000D0008908000821080008890800088908000824
:1000E0008908000889080008890800080000000045
:1000F0000000000000000000000000000000000000
:0C01000000000000000000005FF808F1A3
:10010C0010B5054C237833B9044B13B10448AFF345
:10011C0000800123237010BD0C00002000000000A3
:10012C00342C000808B5034B1BB103490348AFF34B
:10013C00008008BD0000000010000020342C0008D6
:10014C0080B483B000AF78607B681B680A4A934226
:10015C0005D10A4B1B78013BDAB2084B1A70074BDE
:10016C001B78002B02D1054B0A221A7000BF0C37EA
:10017C00BD4680BC704700BF002C0140BA00002077
:10018C0080B582B000AF78607B681B680B4A9342E5
:10019C000FD10B4B1B780133DAB2094B1A70084B99
:1001AC001B781A46074B134401221946064801F0E6
:1001BC00D7FF00BF0837BD4680BD00BF00380140E7
:1001CC00BD010020BC0000207000002080B500AFF5
:1001DC0000F056FB00F014F900F0D2F900F0A6F98B
:1001EC0000F054F97C4801F0BDFB7C4B00221A70E6
:1001FC007B4B00221A707A4B1B781A46794B1344AE
:10020C0001221946784801F0ABFF4FF400517748B2
:10021C0000F02FFF642000F095FB4FF40051734861
:10022C0000F027FF642000F08DFB4FF400516F4865
:10023C0000F01FFF642000F085FB4FF400516B4869
:10024C0000F017FF4FF40051684800F012FF6420D3
:10025C0000F078FB4FF40051644800F00AFF4FF4B3
:10026C008051634800F0D6FE03461A46614B1A7063
:10027C005A4B1A785A4B1B789A4217D05A4B1B6818
:10028C001B6803F08003802B10D1554B1B78013B6E
:10029C00DAB2524B1A70514B1B781A46514B9A5C7E
:1002AC00554B5A604E4B1A784C4B1A70514B1B786D
:1002BC00002B0CD1514B1B780133DAB24F4B1A7017
:1002CC004E4B1B78052B02D94C4B00221A704B4B12
:1002DC001B78013B042B73D801A252F823F000BF0A
:1002EC00010300082503000869030008DD0300086A
:1002FC00DD0300084FF400513C4800F0BAFE6420C6
:10030C0000F020FB4FF40051384800F0B2FE4FF4DF
:10031C00617000F017FB5EE04FF40051334800F0C1
:10032C00A8FE642000F00EFB4FF400512F4800F0A3
:10033C00A0FE642000F006FB4FF400512B4800F0A7
:10034C0098FE642000F0FEFA4FF40051274800F0AC
:10035C0090FE4FF4617000F0F5FA3CE04FF4005160
:10036C00224800F086FE642000F0ECFA4FF40051B5
:10037C001E4800F07EFE642000F0E4FA4FF40051B9
:10038C001A4800F076FE642000F0DCFA4FF40051BD
:10039C00164800F06EFE642000F0D4FA4FF40051C1
:1003AC00124800F066FE642000F0CCFA4FF40051C5
:1003BC000E4800F05EFE4FF4617000F0C3FA0AE0E4
:1003CC000E4B1B78052B05D10C4B00221A7001E04B
:1003DC0000BF44E700BF42E728000020BC0100201A
:1003EC00BD010020BC000020700000200010014066
:1003FC00000C0140B800002000380140B90000207A
:10040C0080B590B000AF07F11803282200211846E0
:10041C0002F0DEFB3B1D00221A605A609A60DA6023
:10042C001A610123BB614FF48033FB6100233B62F3
:10043C000123BB6202237B634FF48033BB634FF415
:10044C00E013FB6307F11803184600F02BFE03467C
:10045C00002B01D000F0FAF80F237B600223BB6065
:10046C000023FB604FF480633B6100237B613B1DE9
:10047C000221184601F098F80346002B01D000F039
:10048C00E5F800BF4037BD4680BD000080B586B0A2
:10049C0000AF07F1080300221A605A609A60DA6014
:1004AC003B4600221A605A601E4B1F4A1A601D4BB5
:1004BC0047225A601B4B00229A601A4B42F2107270
:1004CC00DA60184B00221A61164B00225A61154B48
:1004DC0000229A61134801F0F5F90346002B01D074
:1004EC0000F0B4F84FF48053BB6007F108031946D1
:1004FC000C4801F091FB0346002B01D000F0A6F84C
:10050C0000233B6000237B603B461946054801F005
:10051C0067FD0346002B01D000F098F800BF183798
:10052C00BD4680BD28000020002C014080B500AFE6
:10053C00114B124A1A60104B4FF4E1325A600E4BB9
:10054C0000229A600C4B0022DA600B4B00221A61DD
:10055C00094B0C225A61084B00229A61064B00226F
:10056C00DA61054801F0ACFD0346002B01D000F028
:10057C006DF800BF80BD00BF700000200038014046
:10058C0080B588B000AF07F1100300221A605A60E2
:10059C009A60DA602A4B9B69294A43F010039361F5
:1005AC00274B9B6903F01003FB60FB68244B9B6992
:1005BC00234A43F020039361214B9B6903F02003F2
:1005CC00BB60BB681E4B9B691D4A43F008039361DB
:1005DC001B4B9B6903F008037B607B68184B9B6982
:1005EC00174A43F004039361154B9B6903F0040312
:1005FC003B603B6801224FF40051124800F021FD92
:10060C004FF400533B6101237B610023BB61022348
:10061C00FB6107F1100319460A4800F077FB4FF411
:10062C0080533B6100237B610123BB6107F1100305
:10063C001946054800F06AFB00BF2037BD4680BD57
:10064C000010024000100140000C014080B400AFCB
:10065C0072B600BFFEE7000080B485B000AF154B4A
:10066C009B69144A43F001039361124B9B6903F09D
:10067C000103BB60BB680F4BDB690E4A43F0805330
:10068C00D3610C4BDB6903F080537B607B680A4BB6
:10069C005B68FB60FB6823F0E063FB60FB6843F086
:1006AC000073FB60044AFB68536000BF1437BD46FF
:1006BC0080BC7047001002400000014080B584B03F
:1006CC0000AF78607B681B680D4A934213D10D4BC9
:1006DC009B690C4A43F4006393610A4B9B6903F4D6
:1006EC000063FB60FB6800220021192000F025FA52
:1006FC00192000F03EFA00BF1037BD4680BD00BF88
:10070C00002C01400010024080B588B000AF78602A
:10071C0007F1100300221A605A609A60DA607B6855
:10072C001B68204A934239D11F4B9B691E4A43F4E4
:10073C00804393611C4B9B6903F48043FB60FB6813
:10074C00194B9B69184A43F004039361164B9B6940
:10075C0003F00403BB60BB684FF400733B610223DE
:10076C007B610323FB6107F1100319460F4800F06E
:10077C00CDFA4FF480633B6100237B610023BB61A6
:10078C0007F110031946094800F0C0FA00220021B5
:10079C00252000F0D2F9252000F0EBF900BF20371E
:1007AC00BD4680BD003801400010024000080140E9
:1007BC0080B400AFFEE780B400AFFEE780B400AFBA
:1007CC00FEE780B400AFFEE780B400AFFEE780B474
:1007DC0000AF00BFBD4680BC704780B400AF00BF07
:1007EC00BD4680BC704780B400AF00BFBD4680BC26
:1007FC00704780B500AF00F089F800BF80BD0000E5
:10080C0080B500AF024801F0FFF800BF80BD00BF0B
:10081C002800002080B500AF024801F0C7FC00BFE3
:10082C0080BD00BF7000002080B400AF00BFBD468B
:10083C0080BC7047FFF7F8FF0B480C490C4A0023AB
:10084C0002E0D458C4500433C4188C42F9D3094A7A
:10085C00094C002301E013600432A242FBD302F0E6
:10086C00BFF9FFF7B3FC7047000000200C0000201C
:10087C00802C00080C000020C4010020FEE70000C2
:10088C0080B500AF084B1B68074A43F01003136098
:10089C00032000F047F90F2000F008F8FFF7DCFE0A
:1008AC000023184680BD00BF0020024080B582B0F6
:1008BC0000AF7860124B1A68124B1B7819464FF434
:1008CC007A73B3FBF1F3B2FBF3F3184600F05FF964
:1008DC000346002B01D001230EE07B680F2B0AD8B6
:1008EC00002279684FF0FF3000F027F9064A7B6848
:1008FC001360002300E0012318460837BD4680BD75
:10090C0000000020080000200400002080B400AF8C
:10091C00054B1B781A46054B1B681344034A13609E
:10092C0000BFBD4680BC704708000020C0010020FD
:10093C0080B400AF024B1B681846BD4680BC7047A4
:10094C00C001002080B584B000AF7860FFF7F0FFE5
:10095C00B8607B68FB60FB68B3F1FF3F05D00A4BC6
:10096C001B781A46FB681344FB6000BFFFF7E0FFDF
:10097C000246BB68D31AFA689A42F7D800BF00BF88
:10098C001037BD4680BD00BF0800002080B485B084
:10099C0000AF78607B6803F00703FB600C4BDB68EF
:1009AC00BB60BA684FF6FF031340BB60FB681A02CA
:1009BC00BB68134343F0BF6343F40033BB60044A8A
:1009CC00BB68D36000BF1437BD4680BC704700BF06
:1009DC0000ED00E080B400AF044BDB681B0A03F0B1
:1009EC0007031846BD4680BC704700BF00ED00E011
:1009FC0080B483B000AF0346FB7197F90730002B2E
:100A0C000BDBFB7903F01F02064997F907305B09F2
:100A1C00012000FA02F241F8232000BF0C37BD463A
:100A2C0080BC704700E100E080B483B000AF0346A7
:100A3C003960FB7197F90730002B0ADB3B68DAB29F
:100A4C000C4997F907301201D2B20B4483F80023FA
:100A5C000AE03B68DAB20849FB7903F00F03043B68
:100A6C001201D2B20B441A7600BF0C37BD4680BCC3
:100A7C00704700BF00E100E000ED00E080B489B0F9
:100A8C0000AFF860B9607A60FB6803F00703FB61A4
:100A9C00FB69C3F10703042B28BF0423BB61FB696B
:100AAC000433062B02D9FB69033B00E000237B6176
:100ABC004FF0FF32BB6902FA03F3DA43BB681A400A
:100ACC007B699A404FF0FF317B6901FA03F3D943FC
:100ADC007B680B40134318462437BD4680BC7047D7
:100AEC0080B582B000AF78607B68013BB3F1807F4A
:100AFC0001D301230FE00A4A7B68013B53600F21AD
:100B0C004FF0FF30FFF790FF054B00229A60044B2B
:100B1C0007221A60002318460837BD4680BD00BF67
:100B2C0010E000E080B582B000AF78607868FFF725
:100B3C002DFF00BF0837BD4680BD80B586B000AF25
:100B4C000346B9607A60FB7300237B61FFF742FFB9
:100B5C0078617A68B9687869FFF790FF024697F96F
:100B6C000F3011461846FFF75FFF00BF1837BD4620
:100B7C0080BD80B582B000AF0346FB7197F907309A
:100B8C001846FFF735FF00BF0837BD4680BD80B55E
:100B9C0082B000AF78607868FFF7A2FF0346184672
:100BAC000837BD4680BD80B485B000AF78600023A7
:100BBC00FB737B6893F82130DBB2022B08D07B6887
:100BCC0004229A637B68002283F82020012320E012
:100BDC007B681B681A687B681B6822F00E021A601F
:100BEC007B681B681A687B681B6822F001021A601C
:100BFC007B681A6C7B68DB6B012101FA02F25A608C
:100C0C007B68012283F821207B68002283F8202056
:100C1C00FB7B18461437BD4680BC704780B584B04A
:100C2C0000AF78600023FB737B6893F82130DBB254
:100C3C00022B05D07B6804229A630123FB7351E0DD
:100C4C007B681B681A687B681B6822F00E021A60AE
:100C5C007B681B681A687B681B6822F001021A60AB
:100C6C007B681B68224A934229D07B681B68214A07
:100C7C00934222D07B681B681F4A93421AD07B6830
:100C8C001B681E4A934212D07B681B681C4A934215
:100C9C000AD07B681B681B4A934202D14FF4801325
:100CAC000EE04FF080730BE04FF4803308E04FF40C
:100CBC00805305E04FF4807302E0102300E0012321
:100CCC00114A53607B68012283F821207B68002243
:100CDC0083F820207B685B6B002B03D07B685B6BFD
:100CEC0078689847FB7B18461037BD4680BD00BF1F
:100CFC00080002401C000240300002404400024048
:100D0C00580002406C0002400000024080B48BB0DE
:100D1C0000AF7860396000237B6200233B6269E19D
:100D2C0001227B6A02FA03F3FB613B681B68FA69D8
:100D3C001340BB61BA69FB699A4240F058813B6829
:100D4C005B689A4A93425ED0984A934275D8984A07
:100D5C00934258D0964A93426FD8964A934252D0B7
:100D6C00944A934269D8944A93424CD0924A934203
:100D7C0063D8924A934246D0904A93425DD8122B44
:100D8C002AD8122B59D801A252F823F0130E0008BE
:100D9C00ED0D0008FF0D0008410E0008470E00087D
:100DAC00470E0008470E0008470E0008470E0008C3
:100DBC00470E0008470E0008470E0008470E0008B3
:100DCC00470E0008470E0008470E0008470E0008A3
:100DDC00F50D0008090E0008794A934213D02CE057
:100DEC003B68DB683B6229E03B68DB6804333B62B1
:100DFC0024E03B68DB6808333B621FE03B68DB6840
:100E0C000C333B621AE03B689B68002B02D1042335
:100E1C003B6213E03B689B68012B05D108233B62C6
:100E2C007B68FA691A6109E008233B627B68FA69FE
:100E3C005A6103E000233B6200E000BFBB69FF2B5B
:100E4C0001D87B6801E07B6804337B61BB69FF2BB5
:100E5C0002D87B6A9B0002E07B6A083B9B003B61EB
:100E6C007B691A680F213B6901FA03F3DB431A40D3
:100E7C00396A3B6901FA03F31A437B691A603B68D0
:100E8C005B6803F08053002B00F0B1804D4B9B69E5
:100E9C004C4A43F0010393614A4B9B6903F00103F5
:100EAC00BB60BB68484A7B6A9B08023352F823300C
:100EBC00FB607B6A03F003039B000F2202FA03F32F
:100ECC00DB43FA681340FB607B68404A934213D0C3
:100EDC007B683F4A93420DD07B683E4A934207D0D1
:100EEC007B683D4A934201D1032306E0042304E0CE
:100EFC00022302E0012300E000237A6A02F00302DD
:100F0C0092009340FA681343FB602F497B6A9B085D
:100F1C000233FA6841F823203B685B6803F48013C2
:100F2C00002B06D02D4B9A682C49BB6913438B6060
:100F3C0006E02A4B9A68BB69DB43284913408B6057
:100F4C003B685B6803F40013002B06D0234BDA6874
:100F5C002249BB691343CB6006E0204BDA68BB69BE
:100F6C00DB431E491340CB603B685B6803F40033E2
:100F7C00002B06D0194B5A681849BB6913434B60B8
:100F8C0006E0164B5A68BB69DB43144913404B60AF
:100F9C003B685B6803F48033002B21D00F4B1A683D
:100FAC000E49BB6913430B6021E000BF00003210F7
:100FBC00000031100000221000002110000012105F
:100FCC000000111000100240000001400008014018
:100FDC00000C0140001001400014014000040140CD
:100FEC000B4B1A68BB69DB43094913400B607B6AE6
:100FFC0001337B623B681A687B6A22FA03F3002B8D
:10100C007FF48EAE00BF00BF2C37BD4680BC70474E
:10101C000004014080B485B000AF78600B467B8043
:10102C007B689A687B881340002B02D00123FB73EA
:10103C0001E00023FB73FB7B18461437BD4680BCD4
:10104C00704780B483B000AF78600B467B8013464A
:10105C007B707B78002B03D07A887B681A6103E065
:10106C007B881A047B681A6100BF0C37BD4680BCB4
:10107C00704780B485B000AF78600B467B807B688E
:10108C00DB68FB607A88FB6813401A04FB68D94361
:10109C007B880B401A437B681A6100BF1437BD462E
:1010AC0080BC704780B586B000AF78607B68002B41
:1010BC0001D1012372E27B681B6803F00103002B52
:1010CC0000F08780924B5B6803F00C03042B0CD070
:1010DC008F4B5B6803F00C03082B12D18C4B5B68B5
:1010EC0003F48033B3F5803F0BD1894B1B6803F4B9
:1010FC000033002B6CD07B685B68002B68D101231C
:10110C004CE27B685B68B3F5803F06D1804B1B6873
:10111C007F4A43F4803313602EE07B685B68002BBE
:10112C000CD17B4B1B687A4A23F480331360784BC9
:10113C001B68774A23F4802313601DE07B685B688F
:10114C00B3F5A02F0CD1724B1B68714A43F480236A
:10115C0013606F4B1B686E4A43F4803313600BE0D3
:10116C006B4B1B686A4A23F480331360684B1B6813
:10117C00674A23F4802313607B685B68002B13D0D1
:10118C00FFF7D6FB386108E0FFF7D2FB02463B695C
:10119C00D31A642B01D9032300E25D4B1B6803F4C3
:1011AC000033002BF0D014E0FFF7C2FB386108E0ED
:1011BC00FFF7BEFB02463B69D31A642B01D903230C
:1011CC00ECE1534B1B6803F40033002BF0D100E02F
:1011DC0000BF7B681B6803F00203002B63D04C4BF1
:1011EC005B6803F00C03002B0BD0494B5B6803F0DE
:1011FC000C03082B1CD1464B5B6803F48033002B8B
:10120C0016D1434B1B6803F00203002B05D07B68FF
:10121C001B69012B01D00123C0E13D4B1B6823F05E
:10122C00F8027B685B69DB00394913430B603AE0D9
:10123C007B681B69002B20D0364B01221A60FFF70C
:10124C0077FB386108E0FFF773FB02463B69D31A62
:10125C00022B01D90323A1E12D4B1B6803F00203E0
:10126C00002BF0D02A4B1B6823F0F8027B685B69DB
:10127C00DB00274913430B6015E0264B00221A6054
:10128C00FFF756FB386108E0FFF752FB02463B695B
:10129C00D31A022B01D9032380E11D4B1B6803F0E9
:1012AC000203002BF0D17B681B6803F00803002BB2
:1012BC003AD07B689B69002B19D0174B01221A601E
:1012CC00FFF736FB386108E0FFF732FB02463B695B
:1012DC00D31A022B01D9032360E10D4B5B6A03F097
:1012EC000203002BF0D0012000F0CEFA1CE00A4BD8
:1012FC0000221A60FFF71CFB38610FE0FFF718FBA8
:10130C0002463B69D31A022B08D9032346E100BFDE
:10131C00001002400000424280044242924B5B6A41
:10132C0003F00203002BE9D17B681B6803F0040374
:10133C00002B00F0A6800023FB758B4BDB6903F0C0
:10134C008053002B0DD1884BDB69874A43F08053C7
:10135C00D361854BDB6903F08053BB60BB68012311
:10136C00FB75824B1B6803F48073002B18D17F4BE9
:10137C001B687E4A43F480731360FFF7D9FA386117
:10138C0008E0FFF7D5FA02463B69D31A642B01D962
:10139C00032303E1754B1B6803F48073002BF0D01F
:1013AC007B68DB68012B06D16F4B1B6A6E4A43F0DE
:1013BC00010313622DE07B68DB68002B0CD16A4BB8
:1013CC001B6A694A23F001031362674B1B6A664A66
:1013DC0023F0040313621CE07B68DB68052B0CD143
:1013EC00614B1B6A604A43F0040313625E4B1B6A39
:1013FC005D4A43F0010313620BE05B4B1B6A5A4AD4
:10140C0023F001031362584B1B6A574A23F0040361
:10141C0013627B68DB68002B15D0FFF789FA386103
:10142C000AE0FFF785FA02463B69D31A41F288328B
:10143C00934201D90323B1E04B4B1B6A03F0020327
:10144C00002BEED014E0FFF773FA38610AE0FFF7D7
:10145C006FFA02463B69D31A41F28832934201D9A2
:10146C0003239BE0404B1B6A03F00203002BEED1DD
:10147C00FB7D012B05D13C4BDB693B4A23F08053B0
:10148C00D3617B68DB69002B00F08780364B5B688F
:10149C0003F00C03082B61D07B68DB69022B46D16F
:1014AC00334B00221A60FFF743FA386108E0FFF76C
:1014BC003FFA02463B69D31A022B01D903236DE094
:1014CC00294B1B6803F00073002BF0D17B681B6A5F
:1014DC00B3F5803F08D1244B5B6823F400327B6862
:1014EC009B68214913434B601F4B5B6823F47412B8
:1014FC007B68196A7B685B6A0B431B4913434B601F
:10150C001B4B01221A60FFF713FA386108E0FFF752
:10151C000FFA02463B69D31A022B01D903233DE093
:10152C00114B1B6803F00073002BF0D035E0104B0F
:10153C0000221A60FFF7FCF9386108E0FFF7F8F9B0
:10154C0002463B69D31A022B01D9032326E0064B32
:10155C001B6803F00073002BF0D11EE07B68DB6985
:10156C00012B07D1012319E000100240007000404C
:10157C00600042420B4B5B68FB60FB6803F48032FB
:10158C007B681B6A9A4206D1FB6803F470127B6875
:10159C005B6A9A4201D0012300E0002318461837F9
:1015AC00BD4680BD0010024080B584B000AF7860AD
:1015BC0039607B68002B01D10123D0E06A4B1B689A
:1015CC0003F007033A689A4210D9674B1B6823F063
:1015DC00070265493B6813430B60634B1B6803F0C0
:1015EC0007033A689A4201D00123B8E07B681B6874
:1015FC0003F00203002B20D07B681B6803F004036C
:10160C00002B05D0594B5B68584A43F4E063536098
:10161C007B681B6803F00803002B05D0534B5B68F9
:10162C00524A43F460535360504B5B6823F0F00212
:10163C007B689B684D4913434B607B681B6803F0C8
:10164C000103002B40D07B685B68012B07D1474B13
:10165C001B6803F40033002B15D101237FE07B685A
:10166C005B68022B07D1414B1B6803F00073002B06
:10167C0009D1012373E03D4B1B6803F00203002BDF
:10168C0001D101236BE0394B5B6823F003027B68CB
:10169C005B68364913434B60FFF74AF9F8600AE080
:1016AC00FFF746F90246FB68D31A41F2883293429F
:1016BC0001D9032353E02D4B5B6803F00C027B68CC
:1016CC005B689B009A42EBD1274B1B6803F0070326
:1016DC003A689A4210D2244B1B6823F00702224925
:1016EC003B6813430B60204B1B6803F007033A68FD
:1016FC009A4201D0012332E07B681B6803F004039B
:10170C00002B08D0194B5B6823F4E0627B68DB6824
:10171C00164913434B607B681B6803F00803002BCE
:10172C0009D0124B5B6823F460527B681B69DB00A9
:10173C000E4913434B6000F021F802460B4B5B68DB
:10174C001B0903F00F030A49CB5C22FA03F3094A85
:10175C001360094B1B681846FFF7A8F800231846BE
:10176C001037BD4680BD00BF002002400010024073
:10177C004C2C0008000000200400002080B487B02E
:10178C0000AF0023FB600023BB6000237B610023C0
:10179C007B6000233B611E4B5B68FB60FB6803F0C6
:1017AC000C03042B02D0082B03D027E0194B3B6110
:1017BC0027E0FB689B0C03F00F03174AD35C7B609C
:1017CC00FB6803F48033002B10D0114B5B685B0C6F
:1017DC0003F00103114AD35CBB607B680D4A03FB29
:1017EC0002F2BB68B2FBF3F37B6104E07B680C4A4A
:1017FC0002FB03F37B617B693B6102E0054B3B61C0
:10180C0000BF3B6918461C37BD4680BC704700BF03
:10181C000010024000127A00642C0008742C00089E
:10182C0000093D0080B400AF024B1B681846BD4652
:10183C0080BC70470000002080B500AFFFF7F2FFBE
:10184C000246054B5B681B0A03F007030349CB5C9C
:10185C0022FA03F3184680BD001002405C2C0008ED
:10186C0080B500AFFFF7DEFF0246054B5B68DB0A75
:10187C0003F007030349CB5C22FA03F3184680BD3F
:10188C00001002405C2C000880B485B000AF78607A
:10189C000A4B1B680A4AA2FB03235B0A7A6802FB09
:1018AC0003F3FB6000BFFB685A1EFA60002BF9D1F2
:1018BC0000BF00BF1437BD4680BC7047000000203D
:1018CC00D34D621080B582B000AF78607B68002B7E
:1018DC0001D1012341E07B6893F83D30DBB2002B52
:1018EC0006D17B68002283F83C207868FEF7E6FE80
:1018FC007B68022283F83D207B681A687B6804337E
:10190C001946104600F074FA7B68012283F84620D1
:10191C007B68012283F83E207B68012283F83F20FC
:10192C007B68012283F840207B68012283F84120E8
:10193C007B68012283F842207B68012283F84320D4
:10194C007B68012283F844207B68012283F84520C0
:10195C007B68012283F83D20002318460837BD46DA
:10196C0080BD000080B485B000AF78607B6893F8D0
:10197C003D30DBB2012B01D001233AE07B6802221F
:10198C0083F83D207B681B68DA687B681B6842F033
:10199C000102DA607B681B68184A93420ED07B68A0
:1019AC001B68B3F1804F09D07B681B68144A9342C3
:1019BC0004D07B681B68134A934211D17B681B6867
:1019CC009B6803F00703FB60FB68062B10D07B6859
:1019DC001B681A687B681B6842F001021A6007E0FA
:1019EC007B681B681A687B681B6842F001021A60EE
:1019FC00002318461437BD4680BC7047002C0140AC
:101A0C00000400400008004080B582B000AF786050
:101A1C007B681B681B6903F00203022B22D17B68D5
:101A2C001B68DB6803F00203022B1BD17B681B686D
:101A3C006FF002021A617B6801221A777B681B68BF
:101A4C009B6903F00303002B03D0786800F0B4F912
:101A5C0005E0786800F0A7F9786800F0B6F97B68C3
:101A6C0000221A777B681B681B6903F00403042BA4
:101A7C0022D17B681B68DB6803F00403042B1BD1A9
:101A8C007B681B686FF004021A617B6802221A776C
:101A9C007B681B689B6903F44073002B03D0786848
:101AAC0000F08AF905E0786800F07DF9786800F0BC
:101ABC008CF97B6800221A777B681B681B6903F022
:101ACC000803082B22D17B681B68DB6803F0080332
:101ADC00082B1BD17B681B686FF008021A617B68AE
:101AEC0004221A777B681B68DB6903F00303002B65
:101AFC0003D0786800F060F905E0786800F053F9DD
:101B0C00786800F062F97B6800221A777B681B68A2
:101B1C001B6903F01003102B22D17B681B68DB6858
:101B2C0003F01003102B1BD17B681B686FF01002A5
:101B3C001A617B6808221A777B681B68DB6903F4DF
:101B4C004073002B03D0786800F036F905E0786814
:101B5C0000F029F9786800F038F97B6800221A77D0
:101B6C007B681B681B6903F00103012B0ED17B689A
:101B7C001B68DB6803F00103012B07D17B681B6832
:101B8C006FF001021A617868FEF7DAFA7B681B685D
:101B9C001B6903F08003802B0ED17B681B68DB680C
:101BAC0003F08003802B07D17B681B686FF08002E9
:101BBC001A61786800F07BFA7B681B681B6903F07C
:101BCC004003402B0ED17B681B68DB6803F040039D
:101BDC00402B07D17B681B686FF040021A61786854
:101BEC0000F0FCF87B681B681B6903F02003202BBA
:101BFC000ED17B681B68DB6803F02003202B07D118
:101C0C007B681B686FF020021A61786800F046FA56
:101C1C0000BF0837BD4680BD80B584B000AF78608A
:101C2C0039600023FB737B6893F83C30012B01D1A6
:101C3C000223B4E07B68012283F83C207B680222FB
:101C4C0083F83D207B681B689B68BB60BB6823F0F6
:101C5C007703BB60BB6823F47F43BB607B681B6866
:101C6C00BA689A603B681B68B3F5005F3ED0B3F569
:101C7C00005F00F28780B3F5805F00F08680B3F5DB
:101C8C00805F7FD8702B1AD0702B7BD8602B50D0F4
:101C9C00602B77D8502B3CD0502B73D8402B58D07E
:101CAC00402B6FD8302B64D0302B6BD8202B60D0CE
:101CBC00202B67D8002B5CD0102B5AD062E07B68AD
:101CCC0018683B6899683B685A683B68DB6800F0A9
:101CDC0068F97B681B689B68BB60BB6843F0770343
:101CEC00BB607B681B68BA689A604FE07B681868B9
:101CFC003B6899683B685A683B68DB6800F051F9AF
:101D0C007B681B689A687B681B6842F480429A6007
:101D1C003CE07B6818683B6859683B68DB681A468E
:101D2C0000F0C8F87B681B685021184600F01FF9BA
:101D3C002CE07B6818683B6859683B68DB681A467E
:101D4C0000F0E6F87B681B686021184600F00FF97C
:101D5C001CE07B6818683B6859683B68DB681A466E
:101D6C0000F0A8F87B681B684021184600F0FFF8CB
:101D7C000CE07B681A683B681B681946104600F03B
:101D8C00F6F803E00123FB7300E000BF7B6801223F
:101D9C0083F83D207B68002283F83C20FB7B1846AF
:101DAC001037BD4680BD80B483B000AF786000BFF3
:101DBC000C37BD4680BC704780B483B000AF7860F0
:101DCC0000BF0C37BD4680BC704780B483B000AFF9
:101DDC00786000BF0C37BD4680BC704780B483B0C0
:101DEC0000AF786000BF0C37BD4680BC7047000068
:101DFC0080B485B000AF786039607B681B68FB608D
:101E0C007B68294A93420BD07B68B3F1804F07D093
:101E1C007B68264A934203D07B68254A934208D1BB
:101E2C00FB6823F07003FB603B685B68FA68134344
:101E3C00FB607B681C4A93420BD07B68B3F1804FEC
:101E4C0007D07B68194A934203D07B68184A9342A7
:101E5C0008D1FB6823F44073FB603B68DB68FA68CD
:101E6C001343FB60FB6823F080023B685B69134300
:101E7C00FB607B68FA681A603B689A687B68DA6278
:101E8C003B681A687B689A627B68074A934203D165
:101E9C003B681A697B681A637B6801225A6100BF30
:101EAC001437BD4680BC7047002C01400004004034
:101EBC000008004080B487B000AFF860B9607A6069
:101ECC00FB681B6A7B61FB681B6A23F00102FB68E1
:101EDC001A62FB689B693B613B6923F0F0033B6131
:101EEC007B681B013A6913433B617B6923F00A034E
:101EFC007B617A69BB6813437B61FB683A699A61C1
:101F0C00FB687A691A6200BF1C37BD4680BC7047FB
:101F1C0080B487B000AFF860B9607A60FB681B6A68
:101F2C007B61FB681B6A23F01002FB681A62FB687A
:101F3C009B693B613B6923F470433B617B681B03EA
:101F4C003A6913433B617B6923F0A0037B61BB6857
:101F5C001B017A6913437B61FB683A699A61FB68E0
:101F6C007A691A6200BF1C37BD4680BC704780B4CA
:101F7C0085B000AF786039607B689B68FB60FB685C
:101F8C0023F07003FB603A68FB68134343F00703CC
:101F9C00FB607B68FA689A6000BF1437BD4680BC52
:101FAC00704780B487B000AFF860B9607A603B606E
:101FBC00FB689B687B617B6923F47F437B613B6897
:101FCC001A027B681A43BB6813437A6913437B611B
:101FDC00FB687A699A6000BF1C37BD4680BC7047AD
:101FEC0080B485B000AF786039607B6893F83C3082
:101FFC00012B01D1022346E07B68012283F83C20AF
:10200C007B68022283F83D207B681B685B68FB6061
:10201C007B681B689B68BB60FB6823F07003FB60EC
:10202C003B681B68FA681343FB607B681B68FA68A3
:10203C005A607B681B68164A93420ED07B681B68FB
:10204C00B3F1804F09D07B681B68124A934204D0CD
:10205C007B681B68104A93420CD1BB6823F0800349
:10206C00BB603B685B68BA681343BB607B681B68EA
:10207C00BA689A607B68012283F83D207B68002255
:10208C0083F83C20002318461437BD4680BC7047AB
:10209C00002C0140000400400008004080B483B0D4
:1020AC0000AF786000BF0C37BD4680BC704780B471
:1020BC0083B000AF786000BF0C37BD4680BC704762
:1020CC0080B582B000AF78607B68002B01D1012312
:1020DC0042E07B6893F84130DBB2002B06D17B6881
:1020EC00002283F840207868FEF70EFB7B682422E0
:1020FC0083F841207B681B68DA687B681B6822F4D4
:10210C000052DA60786800F0D5FC7B681B681A69AD
:10211C007B681B6822F490421A617B681B685A69C1
:10212C007B681B6822F02A025A617B681B68DA689C
:10213C007B681B6842F40052DA607B6800225A64A8
:10214C007B68202283F841207B68202283F8422080
:10215C007B6800225A63002318460837BD4680BDB1
:10216C0080B584B000AFF860B9601346FB80FB68A3
:10217C0093F84230DBB2202B12D1BB68002B02D07B
:10218C00FB88002B01D101230BE0FB6800221A63B2
:10219C00FB881A46B968F86800F0B7FA034600E005
:1021AC00022318461037BD4680BD000080B5BAB07A
:1021BC0000AF78607B681B681B68C7F8E4307B68ED
:1021CC001B68DB68C7F8E0307B681B685B69C7F885
:1021DC00DC300023C7F8D8300023C7F8D430D7F848
:1021EC00E43003F00F03C7F8D830D7F8D830002B01
:1021FC000FD1D7F8E43003F02003002B09D0D7F827
:10220C00E03003F02003002B03D0786800F093FB40
:10221C005BE2D7F8D830002B00F0DE80D7F8DC304A
:10222C0003F00103002B06D1D7F8E03003F49073D0
:10223C00002B00F0D180D7F8E43003F00103002B21
:10224C000BD0D7F8E03003F48073002B05D07B68FB
:10225C005B6C43F001027B685A64D7F8E43003F0FE
:10226C000403002B0BD0D7F8DC3003F00103002B58
:10227C0005D07B685B6C43F002027B685A64D7F82C
:10228C00E43003F00203002B0BD0D7F8DC3003F062
:10229C000103002B05D07B685B6C43F004027B6868
:1022AC005A64D7F8E43003F00803002B11D0D7F8A8
:1022BC00E03003F02003002B05D1D7F8DC3003F01D
:1022CC000103002B05D07B685B6C43F008027B6834
:1022DC005A647B685B6C002B00F0F281D7F8E43019
:1022EC0003F02003002B08D0D7F8E03003F02003D4
:1022FC00002B02D0786800F01EFB7B681B685B69C2
:10230C0003F04003002B14BF01230023DBB2C7F8FA
:10231C00D4307B685B6C03F00803002B03D1D7F837
:10232C00D430002B4FD0786800F028FA7B681B68FB
:10233C005B6903F04003002B41D07B681B681433AE
:10234C00C7F89C30D7F89C3053E8003FC7F898305A
:10235C00D7F8983023F04003C7F8D0307B681B685F
:10236C001433D7F8D020C7F8A820C7F8A430D7F872
:10237C00A410D7F8A82041E80023C7F8A030D7F85C
:10238C00A030002BD9D17B68DB6B002B13D07B6882
:10239C00DB6B7E4A5A637B68DB6B1846FEF73EFCB0
:1023AC000346002B16D07B68DB6B5B6B7A68D26BB9
:1023BC00104698470EE0786800F093F90AE07868C8
:1023CC0000F08FF906E0786800F08BF97B6800224A
:1023DC005A6475E100BF73E17B681B6B012B40F005
:1023EC004F81D7F8E43003F01003002B00F0488144
:1023FC00D7F8E03003F01003002B00F041810023EC
:10240C00BB607B681B681B68BB607B681B685B6878
:10241C00BB60BB687B681B685B6903F04003002BE7
:10242C0000F0B6807B68DB6B1B685B68A7F8BE307E
:10243C00B7F8BE30002B00F045817B689B8DB7F858
:10244C00BE209A4280F03E817B68B7F8BE20DA85C8
:10245C007B68DB6B9B69202B00F088807B681B689A
:10246C000C33C7F88830D7F8883053E8003FC7F8EA
:10247C008430D7F8843023F48073C7F8B8307B6885
:10248C001B680C33D7F8B820C7F89420C7F89030E5
:10249C00D7F89010D7F8942041E80023C7F88C3077
:1024AC00D7F88C30002BD9D17B681B6814337B6731
:1024BC007B6F53E8003F3B673B6F23F00103C7F88A
:1024CC00B4307B681B681433D7F8B420C7F880206D
:1024DC00FB67F96FD7F8802041E80023BB67BB6F1F
:1024EC00002BE1D17B681B6814333B663B6E53E8D1
:1024FC00003FFB65FB6D23F04003C7F8B0307B68F1
:10250C001B681433D7F8B020FA66BB66B96EFA6E46
:10251C0041E800237B667B6E002BE3D17B68202295
:10252C0083F842207B6800221A637B681B680C339B
:10253C00FB64FB6C53E8003FBB64BB6C23F01003E3
:10254C00C7F8AC307B681B680C33D7F8AC20BA6585
:10255C007B65796DBA6D41E800233B653B6D002BC3
:10256C00E3D17B68DB6B1846FEF71DFB7B68022210
:10257C005A637B689A8D7B68DB8D9BB2D31A9BB2B6
:10258C001946786800F0B6F89CE000BF4D280008AA
:10259C007B689A8D7B68DB8D9BB2D31AA7F8CE3003
:1025AC007B68DB8D9BB2002B00F08E80B7F8CE30B1
:1025BC00002B00F089807B681B680C33BB63BB6B02
:1025CC0053E8003F7B637B6B23F49073C7F8C830F0
:1025DC007B681B680C33D7F8C8207A643B64396C71
:1025EC007A6C41E80023FB63FB6B002BE3D17B6827
:1025FC001B6814337B627B6A53E8003F3B623B6A87
:10260C0023F00103C7F8C4307B681B681433D7F878
:10261C00C4203A63FB62F96A3A6B41E80023BB625F
:10262C00BB6A002BE3D17B68202283F842207B68B5
:10263C0000221A637B681B680C333B613B6953E8CF
:10264C00003FFB60FB6823F01003C7F8C0307B68C9
:10265C001B680C33D7F8C020FA61BB61B969FA6901
:10266C0041E800237B617B69002BE3D17B6802226C
:10267C005A63B7F8CE301946786800F03BF823E07F
:10268C00D7F8E43003F08003002B09D0D7F8E03002
:10269C0003F08003002B03D0786800F0E5F814E019
:1026AC00D7F8E43003F04003002B0ED0D7F8E0301D
:1026BC0003F04003002B08D0786800F024F904E004
:1026CC0000BF02E000BF00E000BFE837BD4680BDA0
:1026DC0080B483B000AF786000BF0C37BD4680BCBF
:1026EC00704780B483B000AF786000BF0C37BD4634
:1026FC0080BC704780B483B000AF78600B467B80A1
:10270C0000BF0C37BD4680BC704780B485B000AFAD
:10271C00F860B9601346FB80FB68BA689A62FB6884
:10272C00FA889A85FB68FA88DA85FB6800225A6475
:10273C00FB68222283F84220FB681B69002B07D020
:10274C00FB681B68DA68FB681B6842F48072DA600D
:10275C00FB681B685A69FB681B6842F001025A61EE
:10276C00FB681B68DA68FB681B6842F02002DA60C1
:10277C00002318461437BD4680BC704780B495B012
:10278C0000AF78607B681B680C337B637B6B53E812
:10279C00003F3B633B6B23F49073FB647B681B68CB
:1027AC000C33FA6C3A64FB63F96B3A6C41E8002326
:1027BC00BB63BB6B002BE5D17B681B6814333B629E
:1027CC003B6A53E8003FFB61FB6923F00103BB64E8
:1027DC007B681B681433BA6CFA62BB62B96AFA6A1A
:1027EC0041E800237B627B6A002BE5D17B681B6B85
:1027FC00012B19D17B681B680C33FB60FB6853E819
:10280C00003FBB60BB6823F010037B647B681B68D4
:10281C000C337A6CBA617B617969BA6941E800233F
:10282C003B613B69002BE5D17B68202283F8422079
:10283C007B6800221A6300BF5437BD4680BC7047CA
:10284C0080B584B000AF78607B685B6AFB60FB6826
:10285C000022DA85FB680022DA84F868FFF741FF72
:10286C0000BF1037BD4680BD80B485B000AF786026
:10287C007B6893F84130DBB2212B3ED17B689B689F
:10288C00B3F5805F14D17B681B69002B10D17B687A
:10289C001B6AFB60FB681B881A467B681B68C2F3CB
:1028AC0008025A607B681B6A9A1C7B681A6208E0F3
:1028BC007B681B6A591C7A6811621A787B681B68E2
:1028CC005A607B68DB8C9BB2013B9BB27A681946E1
:1028DC00D184002B0FD17B681B68DA687B681B687E
:1028EC0022F08002DA607B681B68DA687B681B6800
:1028FC0042F04002DA60002300E00223184614374D
:10290C00BD4680BC704780B582B000AF78607B68F4
:10291C001B68DA687B681B6822F04002DA607B680F
:10292C00202283F841207868FFF7D2FE0023184656
:10293C000837BD4680BD80B58CB000AF78607B6831
:10294C0093F84230DBB2222B40F0AE807B689B6860
:10295C00B3F5805F17D17B681B69002B13D1002363
:10296C00FB627B689B6ABB627B681B685B689BB283
:10297C00C3F308039AB2BB6A1A807B689B6A9A1CE1
:10298C007B689A6226E07B689B6AFB620023BB62D1
:10299C007B689B68B3F5805F07D07B689B68002BD6
:1029AC000AD17B681B69002B06D17B681B685B68AE
:1029BC00DAB2FB6A1A7008E07B681B685B68DBB2F2
:1029CC0003F07F03DAB2FB6A1A707B689B6A5A1CAD
:1029DC007B689A627B68DB8D9BB2013B9BB27A6809
:1029EC001946D185002B5DD17B681B68DA687B6842
:1029FC001B6822F02002DA607B681B68DA687B684F
:102A0C001B6822F48072DA607B681B685A697B68E9
:102A1C001B6822F001025A617B68202283F8422055
:102A2C007B6800225A637B681B6B012B35D17B685A
:102A3C0000221A637B681B680C337B617B6953E84B
:102A4C00003F3B613B6923F010037B627B681B6892
:102A5C000C337A6A3A62FB61F9693A6A41E80023FD
:102A6C00BB61BB69002BE5D17B681B681B6803F05D
:102A7C001003102B0AD10023FB607B681B681B68BA
:102A8C00FB607B681B685B68FB60FB687B689B8DED
:102A9C0019467868FFF72EFE02E07868FDF770FBA8
:102AAC00002302E0002300E0022318463037BD4625
:102ABC0080BD000080B584B000AF78607B681B6877
:102ACC001B6923F440517B68DA687B681B680A43F6
:102ADC001A617B689A687B681B691A437B685B691F
:102AEC001343BB607B681B68DB6823F4B05323F093
:102AFC000C037A681268B9680B43D3607B681B6857
:102B0C005B6923F440717B689A697B681B680A4394
:102B1C005A617B681B682C4A934203D1FEF7A0FED6
:102B2C00F86002E0FEF788FEF860FA6813469B0036
:102B3C0013449A001A447B685B689B00B2FBF3F366
:102B4C00224AA2FB03235B091901FA6813469B0076
:102B5C0013449A001A447B685B689B00B2FBF3F247
:102B6C001A4BA3FB02035B09642000FB03F3D31A8B
:102B7C001B013233154AA2FB03235B0903F0F0035C
:102B8C001944FA6813469B0013449A001A447B6854
:102B9C005B689B00B2FBF3F20C4BA3FB02035B09DB
:102BAC00642000FB03F3D31A1B013233074AA2FB48
:102BBC0003235B0903F00F027B681B680A449A60CD
:102BCC0000BF1037BD4680BD003801401F85EB515A
:102BDC0003460244934200D1704703F8011BF9E706
:102BEC0070B500260C4D0D4C641BA410A64209D1E7
:102BFC0000F01AF800260A4D0A4C641BA410A642D9
:102C0C0005D170BD55F8043B98470136EEE755F8F1
:102C1C00043B98470136F2E7782C0008782C000822
:102C2C00782C00087C2C0008F8B500BFF8BC08BC58
:102C3C009E467047F8B500BFF8BC08BC9E4670476E
:102C4C000000000000000000010203040607080950
:102C5C000000000001020304020304050607080932
:0C2C6C000A0B0C0D0E0F101001020000EE
:042C7800310100081E
:042C7C000D0100083E
:0C2C80000024F40010000000010000001F
:0400000508000841A6
:00000001FF
